{
  "contractName": "SimpleStorage",
  "abi": [
    {
      "inputs": [],
      "payable": false,
      "stateMutability": "nonpayable",
      "type": "constructor"
    },
    {
      "constant": true,
      "inputs": [
        {
          "internalType": "string",
          "name": "",
          "type": "string"
        }
      ],
      "name": "fileNameAndVersionToIndex",
      "outputs": [
        {
          "internalType": "uint256",
          "name": "",
          "type": "uint256"
        }
      ],
      "payable": false,
      "stateMutability": "view",
      "type": "function"
    },
    {
      "constant": true,
      "inputs": [
        {
          "internalType": "uint256",
          "name": "",
          "type": "uint256"
        }
      ],
      "name": "fileToOwner",
      "outputs": [
        {
          "internalType": "address",
          "name": "",
          "type": "address"
        }
      ],
      "payable": false,
      "stateMutability": "view",
      "type": "function"
    },
    {
      "constant": true,
      "inputs": [
        {
          "internalType": "uint256",
          "name": "",
          "type": "uint256"
        }
      ],
      "name": "files",
      "outputs": [
        {
          "internalType": "string",
          "name": "hash",
          "type": "string"
        },
        {
          "internalType": "string",
          "name": "fileVersion",
          "type": "string"
        },
        {
          "internalType": "string",
          "name": "fileName",
          "type": "string"
        },
        {
          "internalType": "string",
          "name": "fileNameAndVersion",
          "type": "string"
        },
        {
          "internalType": "string",
          "name": "fileContent",
          "type": "string"
        }
      ],
      "payable": false,
      "stateMutability": "view",
      "type": "function"
    },
    {
      "constant": true,
      "inputs": [],
      "name": "lastIndex",
      "outputs": [
        {
          "internalType": "uint256",
          "name": "",
          "type": "uint256"
        }
      ],
      "payable": false,
      "stateMutability": "view",
      "type": "function"
    },
    {
      "constant": false,
      "inputs": [
        {
          "internalType": "string",
          "name": "_hash",
          "type": "string"
        },
        {
          "internalType": "string",
          "name": "_version",
          "type": "string"
        },
        {
          "internalType": "string",
          "name": "_name",
          "type": "string"
        },
        {
          "internalType": "string",
          "name": "_content",
          "type": "string"
        }
      ],
      "name": "set",
      "outputs": [
        {
          "internalType": "bool",
          "name": "",
          "type": "bool"
        }
      ],
      "payable": false,
      "stateMutability": "nonpayable",
      "type": "function"
    },
    {
      "constant": true,
      "inputs": [
        {
          "internalType": "string",
          "name": "a",
          "type": "string"
        },
        {
          "internalType": "string",
          "name": "b",
          "type": "string"
        }
      ],
      "name": "stringCat",
      "outputs": [
        {
          "internalType": "string",
          "name": "",
          "type": "string"
        }
      ],
      "payable": false,
      "stateMutability": "pure",
      "type": "function"
    },
    {
      "constant": true,
      "inputs": [
        {
          "internalType": "string",
          "name": "a",
          "type": "string"
        },
        {
          "internalType": "string",
          "name": "b",
          "type": "string"
        }
      ],
      "name": "stringCmp",
      "outputs": [
        {
          "internalType": "bool",
          "name": "",
          "type": "bool"
        }
      ],
      "payable": false,
      "stateMutability": "pure",
      "type": "function"
    },
    {
      "constant": true,
      "inputs": [
        {
          "internalType": "string",
          "name": "_version",
          "type": "string"
        },
        {
          "internalType": "string",
          "name": "_name",
          "type": "string"
        }
      ],
      "name": "createNameVersion",
      "outputs": [
        {
          "internalType": "string",
          "name": "",
          "type": "string"
        }
      ],
      "payable": false,
      "stateMutability": "pure",
      "type": "function"
    },
    {
      "constant": true,
      "inputs": [
        {
          "internalType": "string",
          "name": "_version",
          "type": "string"
        },
        {
          "internalType": "string",
          "name": "_name",
          "type": "string"
        }
      ],
      "name": "getOwner",
      "outputs": [
        {
          "internalType": "address",
          "name": "",
          "type": "address"
        }
      ],
      "payable": false,
      "stateMutability": "view",
      "type": "function"
    },
    {
      "constant": true,
      "inputs": [
        {
          "internalType": "uint256",
          "name": "_index",
          "type": "uint256"
        }
      ],
      "name": "getOwner",
      "outputs": [
        {
          "internalType": "address",
          "name": "",
          "type": "address"
        }
      ],
      "payable": false,
      "stateMutability": "view",
      "type": "function"
    },
    {
      "constant": true,
      "inputs": [
        {
          "internalType": "uint256",
          "name": "_index",
          "type": "uint256"
        }
      ],
      "name": "getFileVersion",
      "outputs": [
        {
          "internalType": "string",
          "name": "",
          "type": "string"
        }
      ],
      "payable": false,
      "stateMutability": "view",
      "type": "function"
    },
    {
      "constant": true,
      "inputs": [
        {
          "internalType": "uint256",
          "name": "_index",
          "type": "uint256"
        }
      ],
      "name": "getFileNameAndVersion",
      "outputs": [
        {
          "internalType": "string",
          "name": "",
          "type": "string"
        }
      ],
      "payable": false,
      "stateMutability": "view",
      "type": "function"
    },
    {
      "constant": true,
      "inputs": [
        {
          "internalType": "uint256",
          "name": "_index",
          "type": "uint256"
        }
      ],
      "name": "getHash",
      "outputs": [
        {
          "internalType": "string",
          "name": "",
          "type": "string"
        }
      ],
      "payable": false,
      "stateMutability": "view",
      "type": "function"
    },
    {
      "constant": true,
      "inputs": [
        {
          "internalType": "uint256",
          "name": "_index",
          "type": "uint256"
        }
      ],
      "name": "getFileName",
      "outputs": [
        {
          "internalType": "string",
          "name": "",
          "type": "string"
        }
      ],
      "payable": false,
      "stateMutability": "view",
      "type": "function"
    },
    {
      "constant": true,
      "inputs": [
        {
          "internalType": "string",
          "name": "_version",
          "type": "string"
        },
        {
          "internalType": "string",
          "name": "_name",
          "type": "string"
        }
      ],
      "name": "getFileIndex",
      "outputs": [
        {
          "internalType": "uint256",
          "name": "",
          "type": "uint256"
        }
      ],
      "payable": false,
      "stateMutability": "view",
      "type": "function"
    },
    {
      "constant": true,
      "inputs": [
        {
          "internalType": "uint256",
          "name": "_index",
          "type": "uint256"
        }
      ],
      "name": "getFileContent",
      "outputs": [
        {
          "internalType": "string",
          "name": "",
          "type": "string"
        }
      ],
      "payable": false,
      "stateMutability": "view",
      "type": "function"
    },
    {
      "constant": true,
      "inputs": [
        {
          "internalType": "string",
          "name": "_version",
          "type": "string"
        },
        {
          "internalType": "string",
          "name": "_name",
          "type": "string"
        }
      ],
      "name": "getFileContent",
      "outputs": [
        {
          "internalType": "string",
          "name": "",
          "type": "string"
        }
      ],
      "payable": false,
      "stateMutability": "view",
      "type": "function"
    },
    {
      "constant": true,
      "inputs": [],
      "name": "getLatestFileIndex",
      "outputs": [
        {
          "internalType": "uint256",
          "name": "",
          "type": "uint256"
        }
      ],
      "payable": false,
      "stateMutability": "view",
      "type": "function"
    },
    {
      "constant": true,
      "inputs": [],
      "name": "getLatestFileVersion",
      "outputs": [
        {
          "internalType": "string",
          "name": "",
          "type": "string"
        }
      ],
      "payable": false,
      "stateMutability": "view",
      "type": "function"
    },
    {
      "constant": true,
      "inputs": [],
      "name": "getLatestFileName",
      "outputs": [
        {
          "internalType": "string",
          "name": "",
          "type": "string"
        }
      ],
      "payable": false,
      "stateMutability": "view",
      "type": "function"
    },
    {
      "constant": true,
      "inputs": [],
      "name": "getLatestFileContent",
      "outputs": [
        {
          "internalType": "string",
          "name": "",
          "type": "string"
        }
      ],
      "payable": false,
      "stateMutability": "view",
      "type": "function"
    }
  ],
  "bytecode": "0x60806040523480156200001157600080fd5b5060006002600080815260200190815260200160002060006101000a81548173ffffffffffffffffffffffffffffffffffffffff021916908373ffffffffffffffffffffffffffffffffffffffff1602179055506000600360405180807f6669727374000000000000000000000000000000000000000000000000000000815250600501905090815260200160405180910390208190555060006040518060a001604052806040518060400160405280600481526020017f6e756c6c0000000000000000000000000000000000000000000000000000000081525081526020016040518060400160405280600481526020017f6e756c6c0000000000000000000000000000000000000000000000000000000081525081526020016040518060400160405280600481526020017f6e756c6c0000000000000000000000000000000000000000000000000000000081525081526020016040518060400160405280600481526020017f6e756c6c0000000000000000000000000000000000000000000000000000000081525081526020016040518060400160405280600481526020017f6e756c6c0000000000000000000000000000000000000000000000000000000081525081525090806001815401808255809150509060018203906000526020600020906005020160009091929091909150600082015181600001908051906020019062000224929190620002aa565b50602082015181600101908051906020019062000243929190620002aa565b50604082015181600201908051906020019062000262929190620002aa565b50606082015181600301908051906020019062000281929190620002aa565b506080820151816004019080519060200190620002a0929190620002aa565b5050505062000359565b828054600181600116156101000203166002900490600052602060002090601f016020900481019282601f10620002ed57805160ff19168380011785556200031e565b828001600101855582156200031e579182015b828111156200031d57825182559160200191906001019062000300565b5b5090506200032d919062000331565b5090565b6200035691905b808211156200035257600081600090555060010162000338565b5090565b90565b61282280620003696000396000f3fe608060405234801561001057600080fd5b50600436106101375760003560e01c8063867eb7ee116100b8578063d7a4c5671161007c578063d7a4c56714610fd8578063ed7c238d1461107f578063f3f6f0d714611126578063f49061ef14611144578063f4c714b4146111b2578063f60886b51461140957610137565b8063867eb7ee14610dc3578063b400d20814610e46578063c41a360a14610e64578063cd673d5c14610ed2578063d3cea8be14610f5557610137565b80633670837b116100ff5780633670837b1461078a5780633fb0648f146108595780635b23730a14610a245780636b2fafa914610b8a5780637b679aa914610c3157610137565b8063081ffa2e1461013c5780631cb51ebf14610307578063222853e4146104715780632bac01f11461063c57806335b7ae5d146106e3575b600080fd5b61028c6004803603604081101561015257600080fd5b810190808035906020019064010000000081111561016f57600080fd5b82018360208201111561018157600080fd5b803590602001918460018302840111640100000000831117156101a357600080fd5b91908080601f016020809104026020016040519081016040528093929190818152602001838380828437600081840152601f19601f8201169050808301925050505050505091929192908035906020019064010000000081111561020657600080fd5b82018360208201111561021857600080fd5b8035906020019184600183028401116401000000008311171561023a57600080fd5b91908080601f016020809104026020016040519081016040528093929190818152602001838380828437600081840152601f19601f8201169050808301925050505050505091929192905050506116a1565b6040518080602001828103825283818151815260200191508051906020019080838360005b838110156102cc5780820151818401526020810190506102b1565b50505050905090810190601f1680156102f95780820380516001836020036101000a031916815260200191505b509250505060405180910390f35b6104576004803603604081101561031d57600080fd5b810190808035906020019064010000000081111561033a57600080fd5b82018360208201111561034c57600080fd5b8035906020019184600183028401116401000000008311171561036e57600080fd5b91908080601f016020809104026020016040519081016040528093929190818152602001838380828437600081840152601f19601f820116905080830192505050505050509192919290803590602001906401000000008111156103d157600080fd5b8201836020820111156103e357600080fd5b8035906020019184600183028401116401000000008311171561040557600080fd5b91908080601f016020809104026020016040519081016040528093929190818152602001838380828437600081840152601f19601f8201169050808301925050505050505091929192905050506116f3565b604051808215151515815260200191505060405180910390f35b6105c16004803603604081101561048757600080fd5b81019080803590602001906401000000008111156104a457600080fd5b8201836020820111156104b657600080fd5b803590602001918460018302840111640100000000831117156104d857600080fd5b91908080601f016020809104026020016040519081016040528093929190818152602001838380828437600081840152601f19601f8201169050808301925050505050505091929192908035906020019064010000000081111561053b57600080fd5b82018360208201111561054d57600080fd5b8035906020019184600183028401116401000000008311171561056f57600080fd5b91908080601f016020809104026020016040519081016040528093929190818152602001838380828437600081840152601f19601f8201169050808301925050505050505091929192905050506117e2565b6040518080602001828103825283818151815260200191508051906020019080838360005b838110156106015780820151818401526020810190506105e6565b50505050905090810190601f16801561062e5780820380516001836020036101000a031916815260200191505b509250505060405180910390f35b6106686004803603602081101561065257600080fd5b81019080803590602001909291905050506118aa565b6040518080602001828103825283818151815260200191508051906020019080838360005b838110156106a857808201518184015260208101905061068d565b50505050905090810190601f1680156106d55780820380516001836020036101000a031916815260200191505b509250505060405180910390f35b61070f600480360360208110156106f957600080fd5b810190808035906020019092919050505061196a565b6040518080602001828103825283818151815260200191508051906020019080838360005b8381101561074f578082015181840152602081019050610734565b50505050905090810190601f16801561077c5780820380516001836020036101000a031916815260200191505b509250505060405180910390f35b610843600480360360208110156107a057600080fd5b81019080803590602001906401000000008111156107bd57600080fd5b8201836020820111156107cf57600080fd5b803590602001918460018302840111640100000000831117156107f157600080fd5b91908080601f016020809104026020016040519081016040528093929190818152602001838380828437600081840152601f19601f820116905080830192505050505050509192919290505050611a2a565b6040518082815260200191505060405180910390f35b6109a96004803603604081101561086f57600080fd5b810190808035906020019064010000000081111561088c57600080fd5b82018360208201111561089e57600080fd5b803590602001918460018302840111640100000000831117156108c057600080fd5b91908080601f016020809104026020016040519081016040528093929190818152602001838380828437600081840152601f19601f8201169050808301925050505050505091929192908035906020019064010000000081111561092357600080fd5b82018360208201111561093557600080fd5b8035906020019184600183028401116401000000008311171561095757600080fd5b91908080601f016020809104026020016040519081016040528093929190818152602001838380828437600081840152601f19601f820116905080830192505050505050509192919290505050611a58565b6040518080602001828103825283818151815260200191508051906020019080838360005b838110156109e95780820151818401526020810190506109ce565b50505050905090810190601f168015610a165780820380516001836020036101000a031916815260200191505b509250505060405180910390f35b610b7460048036036040811015610a3a57600080fd5b8101908080359060200190640100000000811115610a5757600080fd5b820183602082011115610a6957600080fd5b80359060200191846001830284011164010000000083111715610a8b57600080fd5b91908080601f016020809104026020016040519081016040528093929190818152602001838380828437600081840152601f19601f82011690508083019250505050505050919291929080359060200190640100000000811115610aee57600080fd5b820183602082011115610b0057600080fd5b80359060200191846001830284011164010000000083111715610b2257600080fd5b91908080601f016020809104026020016040519081016040528093929190818152602001838380828437600081840152601f19601f820116905080830192505050505050509192919290505050611b8b565b6040518082815260200191505060405180910390f35b610bb660048036036020811015610ba057600080fd5b8101908080359060200190929190505050611c08565b6040518080602001828103825283818151815260200191508051906020019080838360005b83811015610bf6578082015181840152602081019050610bdb565b50505050905090810190601f168015610c235780820380516001836020036101000a031916815260200191505b509250505060405180910390f35b610d8160048036036040811015610c4757600080fd5b8101908080359060200190640100000000811115610c6457600080fd5b820183602082011115610c7657600080fd5b80359060200191846001830284011164010000000083111715610c9857600080fd5b91908080601f016020809104026020016040519081016040528093929190818152602001838380828437600081840152601f19601f82011690508083019250505050505050919291929080359060200190640100000000811115610cfb57600080fd5b820183602082011115610d0d57600080fd5b80359060200191846001830284011164010000000083111715610d2f57600080fd5b91908080601f016020809104026020016040519081016040528093929190818152602001838380828437600081840152601f19601f820116905080830192505050505050509192919290505050611cc8565b604051808273ffffffffffffffffffffffffffffffffffffffff1673ffffffffffffffffffffffffffffffffffffffff16815260200191505060405180910390f35b610dcb611d78565b6040518080602001828103825283818151815260200191508051906020019080838360005b83811015610e0b578082015181840152602081019050610df0565b50505050905090810190601f168015610e385780820380516001836020036101000a031916815260200191505b509250505060405180910390f35b610e4e611e38565b6040518082815260200191505060405180910390f35b610e9060048036036020811015610e7a57600080fd5b8101908080359060200190929190505050611e42565b604051808273ffffffffffffffffffffffffffffffffffffffff1673ffffffffffffffffffffffffffffffffffffffff16815260200191505060405180910390f35b610eda611e7f565b6040518080602001828103825283818151815260200191508051906020019080838360005b83811015610f1a578082015181840152602081019050610eff565b50505050905090810190601f168015610f475780820380516001836020036101000a031916815260200191505b509250505060405180910390f35b610f5d611f3f565b6040518080602001828103825283818151815260200191508051906020019080838360005b83811015610f9d578082015181840152602081019050610f82565b50505050905090810190601f168015610fca5780820380516001836020036101000a031916815260200191505b509250505060405180910390f35b61100460048036036020811015610fee57600080fd5b8101908080359060200190929190505050611fff565b6040518080602001828103825283818151815260200191508051906020019080838360005b83811015611044578082015181840152602081019050611029565b50505050905090810190601f1680156110715780820380516001836020036101000a031916815260200191505b509250505060405180910390f35b6110ab6004803603602081101561109557600080fd5b81019080803590602001909291905050506120bf565b6040518080602001828103825283818151815260200191508051906020019080838360005b838110156110eb5780820151818401526020810190506110d0565b50505050905090810190601f1680156111185780820380516001836020036101000a031916815260200191505b509250505060405180910390f35b61112e61217f565b6040518082815260200191505060405180910390f35b6111706004803603602081101561115a57600080fd5b8101908080359060200190929190505050612185565b604051808273ffffffffffffffffffffffffffffffffffffffff1673ffffffffffffffffffffffffffffffffffffffff16815260200191505060405180910390f35b6111de600480360360208110156111c857600080fd5b81019080803590602001909291905050506121b8565b60405180806020018060200180602001806020018060200186810386528b818151815260200191508051906020019080838360005b8381101561122e578082015181840152602081019050611213565b50505050905090810190601f16801561125b5780820380516001836020036101000a031916815260200191505b5086810385528a818151815260200191508051906020019080838360005b83811015611294578082015181840152602081019050611279565b50505050905090810190601f1680156112c15780820380516001836020036101000a031916815260200191505b50868103845289818151815260200191508051906020019080838360005b838110156112fa5780820151818401526020810190506112df565b50505050905090810190601f1680156113275780820380516001836020036101000a031916815260200191505b50868103835288818151815260200191508051906020019080838360005b83811015611360578082015181840152602081019050611345565b50505050905090810190601f16801561138d5780820380516001836020036101000a031916815260200191505b50868103825287818151815260200191508051906020019080838360005b838110156113c65780820151818401526020810190506113ab565b50505050905090810190601f1680156113f35780820380516001836020036101000a031916815260200191505b509a505050505050505050505060405180910390f35b6116876004803603608081101561141f57600080fd5b810190808035906020019064010000000081111561143c57600080fd5b82018360208201111561144e57600080fd5b8035906020019184600183028401116401000000008311171561147057600080fd5b91908080601f016020809104026020016040519081016040528093929190818152602001838380828437600081840152601f19601f820116905080830192505050505050509192919290803590602001906401000000008111156114d357600080fd5b8201836020820111156114e557600080fd5b8035906020019184600183028401116401000000008311171561150757600080fd5b91908080601f016020809104026020016040519081016040528093929190818152602001838380828437600081840152601f19601f8201169050808301925050505050505091929192908035906020019064010000000081111561156a57600080fd5b82018360208201111561157c57600080fd5b8035906020019184600183028401116401000000008311171561159e57600080fd5b91908080601f016020809104026020016040519081016040528093929190818152602001838380828437600081840152601f19601f8201169050808301925050505050505091929192908035906020019064010000000081111561160157600080fd5b82018360208201111561161357600080fd5b8035906020019184600183028401116401000000008311171561163557600080fd5b91908080601f016020809104026020016040519081016040528093929190818152602001838380828437600081840152601f19601f8201169050808301925050505050505091929192905050506124f3565b604051808215151515815260200191505060405180910390f35b60606116eb6116e5836040518060400160405280600181526020017f5f000000000000000000000000000000000000000000000000000000000000008152506117e2565b846117e2565b905092915050565b6000816040516020018082805190602001908083835b6020831061172c5780518252602082019150602081019050602083039250611709565b6001836020036101000a03801982511681845116808217855250505050505090500191505060405160208183030381529060405280519060200120836040516020018082805190602001908083835b6020831061179e578051825260208201915060208101905060208303925061177b565b6001836020036101000a0380198251168184511680821785525050505050509050019150506040516020818303038152906040528051906020012014905092915050565b606082826040516020018083805190602001908083835b6020831061181c57805182526020820191506020810190506020830392506117f9565b6001836020036101000a03801982511681845116808217855250505050505090500182805190602001908083835b6020831061186d578051825260208201915060208101905060208303925061184a565b6001836020036101000a03801982511681845116808217855250505050505090500192505050604051602081830303815290604052905092915050565b6060600082815481106118b957fe5b90600052602060002090600502016003018054600181600116156101000203166002900480601f01602080910402602001604051908101604052809291908181526020018280546001816001161561010002031660029004801561195e5780601f106119335761010080835404028352916020019161195e565b820191906000526020600020905b81548152906001019060200180831161194157829003601f168201915b50505050509050919050565b60606000828154811061197957fe5b90600052602060002090600502016004018054600181600116156101000203166002900480601f016020809104026020016040519081016040528092919081815260200182805460018160011615610100020316600290048015611a1e5780601f106119f357610100808354040283529160200191611a1e565b820191906000526020600020905b815481529060010190602001808311611a0157829003601f168201915b50505050509050919050565b6003818051602081018201805184825260208301602085012081835280955050505050506000915090505481565b606060006003611a6885856116a1565b6040518082805190602001908083835b60208310611a9b5780518252602082019150602081019050602083039250611a78565b6001836020036101000a03801982511681845116808217855250505050505090500191505090815260200160405180910390205481548110611ad957fe5b90600052602060002090600502016004018054600181600116156101000203166002900480601f016020809104026020016040519081016040528092919081815260200182805460018160011615610100020316600290048015611b7e5780601f10611b5357610100808354040283529160200191611b7e565b820191906000526020600020905b815481529060010190602001808311611b6157829003601f168201915b5050505050905092915050565b60006003611b9984846116a1565b6040518082805190602001908083835b60208310611bcc5780518252602082019150602081019050602083039250611ba9565b6001836020036101000a038019825116818451168082178552505050505050905001915050908152602001604051809103902054905092915050565b606060008281548110611c1757fe5b90600052602060002090600502016000018054600181600116156101000203166002900480601f016020809104026020016040519081016040528092919081815260200182805460018160011615610100020316600290048015611cbc5780601f10611c9157610100808354040283529160200191611cbc565b820191906000526020600020905b815481529060010190602001808311611c9f57829003601f168201915b50505050509050919050565b6000600260006003611cda86866116a1565b6040518082805190602001908083835b60208310611d0d5780518252602082019150602081019050602083039250611cea565b6001836020036101000a038019825116818451168082178552505050505050905001915050908152602001604051809103902054815260200190815260200160002060009054906101000a900473ffffffffffffffffffffffffffffffffffffffff16905092915050565b6060600060015481548110611d8957fe5b90600052602060002090600502016002018054600181600116156101000203166002900480601f016020809104026020016040519081016040528092919081815260200182805460018160011615610100020316600290048015611e2e5780601f10611e0357610100808354040283529160200191611e2e565b820191906000526020600020905b815481529060010190602001808311611e1157829003601f168201915b5050505050905090565b6000600154905090565b60006002600083815260200190815260200160002060009054906101000a900473ffffffffffffffffffffffffffffffffffffffff169050919050565b6060600060015481548110611e9057fe5b90600052602060002090600502016001018054600181600116156101000203166002900480601f016020809104026020016040519081016040528092919081815260200182805460018160011615610100020316600290048015611f355780601f10611f0a57610100808354040283529160200191611f35565b820191906000526020600020905b815481529060010190602001808311611f1857829003601f168201915b5050505050905090565b6060600060015481548110611f5057fe5b90600052602060002090600502016004018054600181600116156101000203166002900480601f016020809104026020016040519081016040528092919081815260200182805460018160011615610100020316600290048015611ff55780601f10611fca57610100808354040283529160200191611ff5565b820191906000526020600020905b815481529060010190602001808311611fd857829003601f168201915b5050505050905090565b60606000828154811061200e57fe5b90600052602060002090600502016001018054600181600116156101000203166002900480601f0160208091040260200160405190810160405280929190818152602001828054600181600116156101000203166002900480156120b35780601f10612088576101008083540402835291602001916120b3565b820191906000526020600020905b81548152906001019060200180831161209657829003601f168201915b50505050509050919050565b6060600082815481106120ce57fe5b90600052602060002090600502016002018054600181600116156101000203166002900480601f0160208091040260200160405190810160405280929190818152602001828054600181600116156101000203166002900480156121735780601f1061214857610100808354040283529160200191612173565b820191906000526020600020905b81548152906001019060200180831161215657829003601f168201915b50505050509050919050565b60015481565b60026020528060005260406000206000915054906101000a900473ffffffffffffffffffffffffffffffffffffffff1681565b600081815481106121c557fe5b9060005260206000209060050201600091509050806000018054600181600116156101000203166002900480601f0160208091040260200160405190810160405280929190818152602001828054600181600116156101000203166002900480156122715780601f1061224657610100808354040283529160200191612271565b820191906000526020600020905b81548152906001019060200180831161225457829003601f168201915b505050505090806001018054600181600116156101000203166002900480601f01602080910402602001604051908101604052809291908181526020018280546001816001161561010002031660029004801561230f5780601f106122e45761010080835404028352916020019161230f565b820191906000526020600020905b8154815290600101906020018083116122f257829003601f168201915b505050505090806002018054600181600116156101000203166002900480601f0160208091040260200160405190810160405280929190818152602001828054600181600116156101000203166002900480156123ad5780601f10612382576101008083540402835291602001916123ad565b820191906000526020600020905b81548152906001019060200180831161239057829003601f168201915b505050505090806003018054600181600116156101000203166002900480601f01602080910402602001604051908101604052809291908181526020018280546001816001161561010002031660029004801561244b5780601f106124205761010080835404028352916020019161244b565b820191906000526020600020905b81548152906001019060200180831161242e57829003601f168201915b505050505090806004018054600181600116156101000203166002900480601f0160208091040260200160405190810160405280929190818152602001828054600181600116156101000203166002900480156124e95780601f106124be576101008083540402835291602001916124e9565b820191906000526020600020905b8154815290600101906020018083116124cc57829003601f168201915b5050505050905085565b6000606061250185856116a1565b905060006003826040518082805190602001908083835b6020831061253b5780518252602082019150602081019050602083039250612518565b6001836020036101000a038019825116818451168082178552505050505050905001915050908152602001604051809103902054141561273a576000806040518060a00160405280898152602001888152602001878152602001848152602001868152509080600181540180825580915050906001820390600052602060002090600502016000909192909190915060008201518160000190805190602001906125e6929190612748565b506020820151816001019080519060200190612603929190612748565b506040820151816002019080519060200190612620929190612748565b50606082015181600301908051906020019061263d929190612748565b50608082015181600401908051906020019061265a929190612748565b505050905060018103600181905550336002600060018403815260200190815260200160002060006101000a81548173ffffffffffffffffffffffffffffffffffffffff021916908373ffffffffffffffffffffffffffffffffffffffff160217905550600181036003836040518082805190602001908083835b602083106126f857805182526020820191506020810190506020830392506126d5565b6001836020036101000a038019825116818451168082178552505050505050905001915050908152602001604051809103902081905550600192505050612740565b60009150505b949350505050565b828054600181600116156101000203166002900490600052602060002090601f016020900481019282601f1061278957805160ff19168380011785556127b7565b828001600101855582156127b7579182015b828111156127b657825182559160200191906001019061279b565b5b5090506127c491906127c8565b5090565b6127ea91905b808211156127e65760008160009055506001016127ce565b5090565b9056fea265627a7a7231582083f2a8ee13ab8aa12084fc52c850b8aafd2de325a2d92438ff0feaf7e66ab06f64736f6c63430005100032",
  "source": "pragma solidity >=0.4.21 <0.7.0;\n\ncontract SimpleStorage {\n    struct File {\n        string hash;\n        string fileVersion;\n        string fileName;\n        string fileNameAndVersion;\n        string fileContent;\n    }\n\n    File[] public files;\n    uint256 public lastIndex;\n    //   string public firstFileNameAndVersion = \"\";\n    //   bool public first = true;\n\n    mapping(uint256 => address) public fileToOwner;\n    mapping(string => uint256) public fileNameAndVersionToIndex;\n\n    constructor() public {\n        fileToOwner[0] = address(0);\n        fileNameAndVersionToIndex[\"first\"] = 0;\n        files.push(File(\"null\", \"null\", \"null\", \"null\", \"null\"));\n    }\n\n    function set(\n        string memory _hash,\n        string memory _version,\n        string memory _name,\n        string memory _content\n    ) public returns (bool) {\n        string memory fileNameAndVersion = createNameVersion(_version, _name);\n        // if((fileNameAndVersionToIndex[fileNameAndVersion] == 0) && !(stringCmp(firstFileNameAndVersion, fileNameAndVersion))){\n        if ((fileNameAndVersionToIndex[fileNameAndVersion] == 0)) {\n            uint256 id = files.push(\n                File(_hash, _version, _name, fileNameAndVersion, _content)\n            );\n            lastIndex = id - 1;\n            fileToOwner[id - 1] = msg.sender;\n            fileNameAndVersionToIndex[fileNameAndVersion] = id - 1;\n            // if(first) {\n            //     first = false;\n            //     firstFileNameAndVersion = fileNameAndVersion;\n            // }\n            return true;\n        } else {\n            return false;\n        }\n    }\n\n    function stringCat(string memory a, string memory b)\n        public\n        pure\n        returns (string memory)\n    {\n        return string(abi.encodePacked(bytes(a), bytes(b)));\n    }\n\n    function stringCmp(string memory a, string memory b)\n        public\n        pure\n        returns (bool)\n    {\n        return (keccak256(abi.encodePacked((a))) ==\n            keccak256(abi.encodePacked((b))));\n    }\n\n    function createNameVersion(string memory _version, string memory _name)\n        public\n        pure\n        returns (string memory)\n    {\n        return stringCat(stringCat(_name, \"_\"), string(_version));\n    }\n\n    function getOwner(string memory _version, string memory _name)\n        public\n        view\n        returns (address)\n    {\n        return\n            fileToOwner[fileNameAndVersionToIndex[createNameVersion(\n                _version,\n                _name\n            )]];\n    }\n\n    function getOwner(uint256 _index) public view returns (address) {\n        return fileToOwner[_index];\n    }\n\n    function getFileVersion(uint256 _index)\n        public\n        view\n        returns (string memory)\n    {\n        return files[_index].fileVersion;\n    }\n\n    function getFileNameAndVersion(uint256 _index)\n        public\n        view\n        returns (string memory)\n    {\n        return files[_index].fileNameAndVersion;\n    }\n\n    function getHash(uint256 _index) public view returns (string memory) {\n        return files[_index].hash;\n    }\n\n    function getFileName(uint256 _index) public view returns (string memory) {\n        return files[_index].fileName;\n    }\n\n    function getFileIndex(string memory _version, string memory _name)\n        public\n        view\n        returns (uint256)\n    {\n        return fileNameAndVersionToIndex[createNameVersion(_version, _name)];\n    }\n\n    function getFileContent(string memory _version, string memory _name)\n        public\n        view\n        returns (string memory)\n    {\n        return\n            files[fileNameAndVersionToIndex[createNameVersion(_version, _name)]]\n                .fileContent;\n    }\n\n    function getFileContent(uint256 _index)\n        public\n        view\n        returns (string memory)\n    {\n        return files[_index].fileContent;\n    }\n\n    function getLatestFileIndex() public view returns (uint256) {\n        return lastIndex;\n    }\n\n    function getLatestFileVersion() public view returns (string memory) {\n        return files[lastIndex].fileVersion;\n    }\n\n    function getLatestFileName() public view returns (string memory) {\n        return files[lastIndex].fileName;\n    }\n\n    function getLatestFileContent() public view returns (string memory) {\n        return files[lastIndex].fileContent;\n    }\n\n}\n",
  "sourcePath": "/mnt/c/users/user/desktop/syseng/bchain_frontend/contracts/SimpleStorage.sol",
  "compiler": {
    "name": "solc",
    "version": "0.5.16+commit.9c3226ce.Emscripten.clang"
  },
  "schemaVersion": "3.0.21",
  "updatedAt": "2020-03-31T07:11:21.274Z",
  "networkType": "ethereum",
  "devdoc": {
    "methods": {}
  },
  "userdoc": {
    "methods": {}
  }
}